:10000000E7C100000DC200000BC2000009C20000E1
:1000100007C2000005C2000003C2000001C20000C8
:10002000FFC10000FDC100000C945D090C94D609CD
:10003000F7C10000F5C10000F3C10000F1C10000EC
:10004000EFC10000EDC10000EBC10000E9C10000FC
:10005000E7C10000E5C10000E3C100000C94BC084A
:10006000DFC10000DDC10000DBC10000D9C100001C
:10007000D7C10000D5C10000D3C10000D1C100002C
:10008000CFC10000CDC10000CBC10000C9C100003C
:10009000C7C10000C5C10000C3C10000C1C100004C
:1000A000BFC10000BDC10000BBC1000000407A100C
:1000B000F35A00A0724E18090010A5D4E80000E819
:1000C0007648170000E40B54020000CA9A3B000077
:1000D00000E1F505000080969800000040420F0006
:1000E0000000A08601000000102700000000E803C7
:1000F000000000006400000000000A000000000092
:100100000100000000002C76D888DC674F0823DF50
:10011000C1DFAE59E1B1B796E5E3E453C63AE65123
:10012000997696E8E6C28426EB898C9B62ED407C4A
:100130006FFCEFBC9C9F40F2BAA56FA5F490055AE6
:100140002AF75C936B6CF9676DC11BFCE0E40D470B
:10015000FEF520E6B500D0ED902E0300943577052E
:100160000080841E080000204E0A000000C80C33E6
:100170003333330F986E12831141EF8D2114893B75
:10018000E65516CFFEE6DB18D1844B381BF77C1DF5
:10019000901DA4BBE424203284725E228100C9F148
:1001A00024ECA1E53D27456E7465722061206E75D3
:1001B0006D626572203120746F2036203E004F46FC
:1001C00046004F4E004F4E004F4646002736272030
:1001D0004F75747075742000000952554E4E494E8B
:1001E00047002735272052657175657374656476FD
:1001F0007350726F6772616D6D656456616C756581
:100200007300000952554E4E494E470027342720AF
:10021000506861736554657374090900000952558B
:100220004E4E494E47002733272053776974636841
:100230004672657175656E63795265676973746539
:10024000725465737400000952554E4E494E470072
:10025000273227204379636C6557617665666F7234
:100260006D73546573740900000952554E4E494E22
:10027000470027312720496E6372656D656E7446AD
:1002800072657175656E637954657374002A2A2AE4
:100290002A2A2A2041443938333320546573742084
:1002A0004D656E75202A2A2A2A2A2A0A0020202033
:1002B00041637475616C203A0052657175657374A1
:1002C0006564203A000A456E746572206672657135
:1002D00075656E6379202827512720746F2071750A
:1002E000697429203E002A2A2A20496E76616C69A9
:1002F0006420636F6D6D616E64202A2A2A000001FC
:100300000000AF0312000200006C03430003000072
:10031000680304010309044E0318020309043603A9
:10032000160303090428030C0C03310032003300C8
:100330003400350000001603550053004200200031
:10034000530065007200690061006C000000180332
:100350005400650065006E0073007900640075004C
:1003600069006E006F0000000403090409024300E5
:10037000020100C03209040000010202010005244C
:1003800000100105240100010424020605240600D2
:10039000010705820308004009040100020A000069
:1003A0000007050302400000070584024000001218
:1003B00001000202000020C01683040001010203B4
:1003C000010001C10201803601813600CF048A0E8E
:1003D00011241FBECFEFDAE0DEBFCDBF11E0A0E0F9
:1003E000B1E0EAE3F8E202C005900D92AA31B1074C
:1003F000D9F721E0AAE1B1E001C01D92A035B20712
:10040000E1F711E0C8EED1E004C02197FE010E949F
:100410004A11C63ED107C9F70E94880C0C941B14E0
:10042000EFCD8EBD00000DB407FEFDCF8EB5089553
:10043000FC01279A2F9A278330874187528715829C
:100440001682148280E090E293838283918380837A
:1004500080E090E0AAE7B4E48787908BA18BB28B11
:1004600083879487A587B687178A108E118E128E80
:10047000138A148A158A168A148E138E168E158E78
:1004800008958F929F92AF92BF92CF92DF92EF9298
:10049000FF92FC01672B29F483849484A584B6849D
:1004A00004C087849088A188B2886781708581851F
:1004B00092850E94A00F6B017C0120E030E040E8B3
:1004C0005DE4C501B4010E94B210A70196010E942B
:1004D000070F0E94740F9F700E94A20FA701960140
:1004E0000E94B21020E030E040E851E30E94B210D8
:1004F000FF90EF90DF90CF90BF90AF909F908F9044
:100500000895CF93DF931F92CDB7DEB7872F9CB5A9
:10051000937F98609CBD2F98698383DF6981862FC4
:1005200080DF2F9A0F90DF91CF91089560E071E006
:10053000E8DF6FE070E080E090E05EC6CF93DF938D
:10054000EC0199D564E670E080E090E055D6CE01EC
:10055000DF91CF91EBCFCF92DF92EF92FF920F938B
:100560001F93CF93DF93EC018B01CA01B90120E007
:1005700030E044EB53E40E94E40F6B017C0120E087
:1005800030E0A9010E94030F87FF0AC020E030E09D
:1005900044EB53E4C701B6010E949F0E6B017C013E
:1005A00021E63BE046E351E4C701B6010E94B210E8
:1005B0000E94740FAB015F70012B39F4BA01706CAB
:1005C000CB8ADC8AED8AFE8A06C0CF8AD88EE98E75
:1005D000FA8EBA01706ECE01DF91CF911F910F910B
:1005E000FF90EF90DF90CF908CCF0F931F93CF931E
:1005F000DF93EC018B01672B29F46B897C898D8952
:100600009E8904C06F89788D898D9A8D0E949F0E76
:100610009B01AC01B801CE01DF91CF911F910F91E9
:100620009ACFFC01838D948D892B21F46081718197
:10063000777F03C0628173817860858D968D892B69
:1006400011F47B7F01C074608481882311F07E7F68
:1006500001C071608581882311F0606401C06F7BE7
:100660008681882311F0606801C06F77CF0149CF80
:10067000FC01672B19F45183408302C053834283EA
:10068000D0CFFC016483CDCFFC01748F638F4230E7
:10069000510519F4768F658F03C0FC01568F458F85
:1006A000C0CFAF92BF92CF92DF92EF92FF920F93A3
:1006B0001F93CF93DF93EC018B0169017A0120E254
:1006C0003CEB4EE35BE4C701B6010E94AE10181686
:1006D0006CF020E030E0A901C701B6010E94030FD1
:1006E00087FF0CC0C12CD12C760108C030E2C32E8C
:1006F0003CEBD32E3EE3E32E3BE4F32E0115110534
:1007000029F4CB86DC86ED86FE8604C0CF86D88AA7
:10071000E98AFA8A20E030E040E85DE4C701B601EA
:100720000E94B2106B017C016F81788589859A8562
:100730000E94A00F9B01AC01C701B6010E94070FE8
:100740000E946F0F6B017C01CC2420ECD2222FE0A1
:10075000F2222EE0F594E794D794C7942A95D1F726
:100760007F73012B21F0A12C90E8B92E03C0A12C9E
:1007700080E4B82E8501062B172BCE0152DFB8017D
:10078000CE01BFDEB5016C297D29CE01DF91CF916D
:100790001F910F91FF90EF90DF90CF90BF90AF909F
:1007A000B0CE0F931F93CF93DF93EC018B01672B98
:1007B00029F46B857C858D859E8504C06F8578893D
:1007C00089899A890E949F0E9B01AC01B801CE01D4
:1007D000DF91CF911F910F9164CF6F927F928F9293
:1007E0009F92AF92BF92CF92DF92EF92FF920F93C0
:1007F0001F93CF93DF93EC013B014A01A9019801BC
:10080000B4014FDFA6019501B701CE01A4DEA3011B
:10081000B401CE012DDFA701B401CE01DF91CF914C
:100820001F910F91FF90EF90DF90CF90BF90AF900E
:100830009F908F907F906F9027CFFB0101900020B9
:10084000E9F73197AF01461B570BDC01ED91FC91A5
:100850000280F381E02D09940F931F93CF93DF93D0
:10086000EC0109D78C01CE0157D7800F911FDF9182
:10087000CF911F910F910895CF93DF93C82FD62F5B
:1008800086E491E049D786E491E046D76DE872E0CE
:1008900086E491E0E1DF62E772E086E491E0EBD686
:1008A000C13319F068E672E002C069E672E086E4DE
:1008B00091E0D2DF60E572E086E491E0DCD6C233FD
:1008C00019F066E472E002C067E472E086E491E049
:1008D000C3DF66E272E086E491E0CDD6C33319F05F
:1008E0006CE172E002C06DE172E086E491E0B4DF99
:1008F0006CE072E086E491E0BED6C43319F062E0A9
:1009000072E002C063E072E086E491E0A5DF62EE8F
:1009100071E086E491E0AFD6C53319F068ED71E07F
:1009200002C069ED71E086E491E096DF6CEC71E065
:1009300086E491E0A0D6C63341F4DD2319F068ECDB
:1009400071E00AC065EC71E007C0DD2319F062ECCC
:1009500071E002C06EEB71E086E491E07DDF66EA53
:1009600071E086E491E0DF91CF9176CF249A86E41E
:1009700091E00E947F0E8823D1F340E855E260E0C9
:1009800070E086E491E00E94180E8BE191E0D6DDE4
:1009900060E08BE191E075DE61E080E06DCF20E406
:1009A00038E74DE751E064E08BE191E041CDAF9253
:1009B000BF92CF92DF92EF92FF920F931F93CF934C
:1009C000DF93A12CB12C650182E0E82EF12C00E030
:1009D00010E02AE734E441E050E060E070E28BE1AF
:1009E00091E0FBDE98EEC92E93E0D92EE12CF12C9C
:1009F00020E030E847E754E461E070E08BE191E00B
:100A000050DEC1E9D1E086E491E09CD7892B41F525
:100A10000FB6F89460913B0170913C0180913D01CB
:100A200090913E010FBEA70196010E942811653FDB
:100A300071408105910510F02C9A01C02C9820E09E
:100A400030E040E251E461E070E08BE191E0A9DE4A
:100A50006CE070E080E090E0CFD32197A1F6C8CFA2
:100A6000DF91CF911F910F91FF90EF90DF90CF908A
:100A7000BF90AF900895CF92DF92EF92FF921F93B5
:100A8000CF93DF9320E030E44CE156E460E070E087
:100A90008BE191E006DE20E030E04AE754E461E0DB
:100AA00070E08BE191E0FDDDC0E0D0E288EEC82E81
:100AB00083E0D82EE12CF12CAE0161E070E08BE1F7
:100AC00091E0D6DDAE0160E070E08BE191E0D0DD39
:100AD00042E050E061E070E08BE191E0D5DD1AE0AA
:100AE00086E491E02FD7892B09F069C00FB6F894FE
:100AF00060913B0170913C0180913D0190913E01DC
:100B00000FBEA70196010E942811653F7140810523
:100B1000910510F02C9A01C02C9864E670E080E0FA
:100B200090E06AD31150E1F642E050E060E070E0FE
:100B30008BE191E0A9DD1AE086E491E003D7892BEF
:100B400009F03DC00FB6F89460913B0170913C01F3
:100B500080913D0190913E010FBEA70196010E9438
:100B60002811653F71408105910510F02C9A01C054
:100B70002C9864E670E080E090E03ED31150E1F6FE
:100B8000C23080E2D807A9F044F4C11580E2D8074A
:100B900009F092CFC2E0D0E28FCFC03220E2D2077C
:100BA00059F0C83280E2D80709F086CFC0E2D0E21F
:100BB00083CFC8E2D0E280CFC0E0D0E27DCFDF912A
:100BC000CF911F91FF90EF90DF90CF900895AF925B
:100BD000BF92CF92DF92EF92FF920F931F93A12CBF
:100BE000B12C650182E0E82EF12C00E014E224EF44
:100BF00038E440E050E060E070E28BE191E0EDDD50
:100C000000E010E523EC37E441E050E060E070E202
:100C10008BE191E0E2DD20E030E044E353E461E089
:100C200070E08BE191E097DC8BE191E07FDC98EE66
:100C3000C92E93E0D92EE12CF12C86E491E082D6E6
:100C4000892B31F50FB6F89460913B0170913C010E
:100C500080913D0190913E010FBEA70196010E9437
:100C60002811653F71408105910510F02C9A01C053
:100C70002C9842E050E060E070E08BE191E004DD10
:100C800042E050E061E070E08BE191E0FDDCD5CF27
:100C90001F910F91FF90EF90DF90CF90BF90AF909A
:100CA00008954F925F926F927F929F92AF92BF9200
:100CB000CF92DF92EF92FF920F931F93CF93DF9328
:100CC000A12CB12C650182E0E82EF12C00E010E0AF
:100CD0002AE734E440E050E062E070E28BE191E02A
:100CE0007CDD00E010E02AEF34E441E050E060E019
:100CF00070E28BE191E071DD11E09924939498EE1C
:100D0000492E93E0592E612C712C20EBE22E2DE11F
:100D1000F22E38E7C32E3EE1D32E4AE5A42EB12CA5
:100D2000012F0925C0E0D0E0112329F020E030E0B8
:100D300040E85FEB04C020E030E040E85FE361E0C2
:100D400070E08BE191E051DC86E491E0FBD5892BEA
:100D500009F05EC00FB6F89460913B0170913C01C0
:100D600080913D0190913E010FBEA30192010E942E
:100D70002811653F71408105910510F02C9A01C042
:100D80002C9842E050E060E070E08BE191E07CDC88
:100D9000C7010197F1F786E491E0D4D5892B09F0DA
:100DA00037C00FB6F89460913B0170913C0180917F
:100DB0003D0190913E010FBEA30192010E942811B6
:100DC000653F71408105910510F02C9A01C02C9867
:100DD00042E050E061E070E08BE191E055DCC6015B
:100DE0000197F1F78BE191E0A1DBCE01B5010E9403
:100DF0001511892B29F468EE73E080E090E0FCD1B6
:100E00002196C93681E0D80709F08ECF102F88CF00
:100E1000DF91CF911F910F91FF90EF90DF90CF90D6
:100E2000BF90AF909F907F906F905F904F9008958C
:100E30004F925F926F927F928F929F92AF92BF92EA
:100E4000CF92DF92EF92FF920F931F93CF93DF9396
:100E5000CDB7DEB764970FB6F894DEBF0FBECDBF37
:100E6000A12CB12C650182E0E82EF12C00E010E00D
:100E70002AE734E440E050E060E070E28BE191E08A
:100E8000ACDC98EE492E93E0592E612C712C86E44F
:100E900091E091D564E670E080E090E0ADD186E429
:100EA00091E050D51816190694F365EC72E086E4CB
:100EB00091E0D2DC86E491E045D5892BC1F40FB6F0
:100EC000F89460913B0170913C0180913D019091BB
:100ED0003E010FBEA30192010E942811653F71409F
:100EE0008105910510F02C9AE5CF2C98E3CF86E48C
:100EF00091E04CD50E949C118135910579F486E4EE
:100F000091E059D564E670E080E090E075D186E428
:100F100091E018D51816190694F338C086E491E0CC
:100F2000F5D46B017C019B01AC0160E070E08BE1CA
:100F300091E0B7DB60E070E08BE191E0A2DA4B0179
:100F40005C0169EB72E086E491E095D38E010F5F5E
:100F50001F4F25E04EE0C701B6010E947D11B80188
:100F600086E491E06ADC6DEA72E086E491E083D386
:100F700025E04EE0C501B4010E947D11B80186E470
:100F800091E05BDC86E491E0C7D381CF64960FB635
:100F9000F894DEBF0FBECDBFDF91CF911F910F91AF
:100FA000FF90EF90DF90CF90BF90AF909F908F9089
:100FB0007F906F905F904F900895CF930FB6F89405
:100FC00060913B0170913C0180913D0190913E0107
:100FD0000FBE28EE33E040E050E00E942811653F4C
:100FE00071408105910510F02C9A01C02C9886E47F
:100FF00091E0A8D4892B09F43CC086E491E0DBD4CD
:10100000C82F86E491E0D7D464E670E080E090E0F9
:10101000F3D086E491E096D41816190694F3609103
:101020001A018C2F29DCC333C1F034F4C13399F099
:10103000C233C9F4CF911FCDC53399F084F0C633C4
:1010400091F460911A0181E0682760931A018BE1A5
:1010500091E0CF9116CBCF91AACCCF91B8CDCF91C3
:1010600020CECF91E5CE66EE72E086E491E0CF919E
:10107000F3CBCF910895289A209A8CB580618CBDCE
:101080008CB580648CBD219A229A08951DBA109265
:1010900068001CBC10BE1FBA10927A0010926E003D
:1010A00010926F0010927100109272001092C9009D
:1010B000ECEBF0E0108214B817B81AB81DB810BAEB
:1010C000108215B818B81BB81EB811BA0895F89454
:1010D000E1E6F0E020E82083108283E084BD85BD56
:1010E000EEE6F0E080818160808381E08093800083
:1010F00092E0909381008093900090939100909360
:10110000C00094E09093C1008093C2008093C3001C
:101110001092C40086E880937A0020937B0010929E
:101120007E0010927D00A7D078940895F89484B73B
:10113000877F84BF809160008061809360001092FF
:10114000600080E29EE40197F1F781E08093E00087
:1011500080E28093D80080E69AEE0197F1F796DF5F
:101160000C94003FFFCFF89491DF80E69AEE019750
:10117000F1F70C940000FFCF8F938FB78F9380917E
:101180003A018D5F8D37D0F480933A0180913B0115
:101190008F5F80933B01D8F080913C018F4F80930B
:1011A0003C01A8F080913D018F4F80933D0178F084
:1011B00080913E018F4F80933E0109C08D578093EF
:1011C0003A0180913B018E5F80933B0128F780912B
:1011D0003F018C5F80933F0158F0809140018F4F19
:1011E0008093400128F0809141018F4F809341010D
:1011F0008F918FBF8F911895CF92DF92EF92FF92D0
:101200006B017C0119D09B01C114D104E104F104EC
:1012100071F012D0621B730B683E7340A8F381E03B
:10122000C81AD108E108F10828513C4FEDCFFF90D2
:10123000EF90DF90CF9008950FB6F89466B515B291
:1012400070913F0180914001909141010FBE10FECD
:1012500005C06F3F19F07C5F8F4F9F4F1124002412
:10126000660F001C660F001C702908958091E8002D
:1012700080FFFCCF08958091D80087FF02C085FFD2
:101280001BC081E08093D70080EA8093D80082E180
:1012900089BD09B400FEFDCF80E98093D80010928B
:1012A000E0001092520110925101109250011092E0
:1012B000E1008DE08093E20008951F920F920FB637
:1012C0000F9211242F933F934F935F936F937F93CC
:1012D0008F939F93AF93BF93EF93FF939091E10010
:1012E0001092E10093FF11C01092E90081E0809319
:1012F000EB001092EC0082E28093ED0088E0809396
:10130000F000109252011092500192FF1DC0809186
:1013100052018823C9F080914501882359F08150FA
:1013200080934501811106C084E08093E9008AE33F
:101330008093E80080914401882331F081508093AC
:101340004401811101C0F2DE90FF0CC080E1809366
:10135000E2001092520181E08093510180EA809373
:10136000D80019BC80915101882379F094FF0DC0F9
:1013700082E189BD09B400FEFDCF80E98093D800E9
:101380008DE08093E20010925101FF91EF91BF91A7
:10139000AF919F918F917F916F915F914F913F910D
:1013A0002F910F900FBE0F901F9018951F920F92C4
:1013B0000FB60F921124EF92FF920F931F932F936A
:1013C0003F934F935F936F937F938F939F93AF93CD
:1013D000BF93CF93EF93FF931092E9008091E800C1
:1013E00083FF30C1C091F1008091F100E090F100E5
:1013F000F090F1000091F1001091F1002091F100C6
:101400003091F10092EF9093E800863009F03FC0F0
:1014100086E0EEEFF2E0459155914E155F0511F033
:10142000359615C0459155914017510711F03396E7
:101430000EC04591559184912F3F310519F010F060
:101440002FEF30E0281708F4822F3EEF08C08150BC
:1014500011F7F8C0891B3093E8008823A9F0909118
:10146000E800292F2570D9F392FDEFC0982F813223
:1014700008F090E2292F222369F3FA014591409365
:10148000F100AF012150F7CF903249F3DEC0853033
:1014900049F48EEF8093E800E9DE8E2D806880931A
:1014A000E300D3C0893001F5C111CCC0E0925201F4
:1014B00010925001109245018EEF8093E80081E078
:1014C000E1ECF3E08093E90095919093EB00992390
:1014D00031F095919093EC0095919093ED008F5F92
:1014E000853081F78EE1A9C0883049F4C03809F011
:1014F000A9C0BCDE809152018093F1007DC0813291
:1015000079F4C13A09F09EC0B1DEE0E0F1E087E095
:101510008E0F90819093F10031968E13FACF6CC0AC
:10152000803209F047C0C13209F08CC08091E800D8
:1015300082FFFCCFE0E0F1E087E08E0F9091F100B8
:10154000908331968E13FACF8BEF8093E8008EEF65
:101550008093E800309100014091010180910201E7
:101560002091030190E0A0E0B0E0DC0199278827FA
:10157000942B832BB22B86389105A105B10521F45C
:101580008FE08093440161C086399105A105B105C2
:1015900009F05BC084E08093E9009FEF8091EE004A
:1015A000837039F09093E8008091E80082FDFCCFD1
:1015B000F5CFD9DD823231F4C13209F043C0E09277
:1015C000500104C0833221F4C132E1F54FDE14C072
:1015D000811116C04BDEC23851F40093E9008091AE
:1015E000EB0085FB882780F91092E90001C080E0BC
:1015F0008093F1001092F1008EEF8093E80025C0F7
:10160000982F9D7F9130F1F4C230E1F4EF28D1F4AE
:101610000F779FEF900F9630A8F49EEF9093E8001D
:101620000093E900833071F089E18093EB0081E061
:1016300090E001C0880F0A95EAF78093EA001092C3
:10164000EA0003C081E28093EB00FF91EF91CF911C
:10165000BF91AF919F918F917F916F915F914F91CA
:101660003F912F911F910F91FF90EF900F900FBE20
:101670000F901F9018958F929F92AF92BF92CF922A
:10168000DF92EF92FF920F931F93CF93DF93CDB72B
:10169000DEB7A0970FB6F894DEBF0FBECDBF4C01EA
:1016A0006B01CB015AD68C01A12CB12C011511056F
:1016B000F9F078010132110518F080E2E82EF12CE2
:1016C000A701B601CE0101963FD6CE0CDF1C0E1944
:1016D0001F09D401ED91FC910280F381E02DA70157
:1016E000BE016F5F7F4FC4010995A80EB91EDECF02
:1016F000C501A0960FB6F894DEBF0FBECDBFDF9137
:10170000CF911F910F91FF90EF90DF90CF90BF90FE
:10171000AF909F908F900895CF93DF9300D0CDB777
:10172000DEB72DE029832AE02A83DC01ED91FC91CC
:101730000280F381E02D42E050E0BE016F5F7F4FF9
:1017400009950F900F90DF91CF910895CF92DF927E
:10175000EF92FF92CF93DF93EC010FB6F894C09015
:101760003B01D0903C01E0903D01F0903E010FBE66
:10177000E881F9810484F585E02DCE01099597FF74
:101780001AC00FB6F89440913B0150913C01609112
:101790003D0170913E010FBE4C195D096E097F0934
:1017A0008B819C81AD81BE81481759076A077B07F1
:1017B000F8F28FEF9FEFDF91CF91FF90EF90DF90E6
:1017C000CF900895CF93DF93EC01CE01BFDF97FD5B
:1017D00011C08D32910571F09C01205331092A30DE
:1017E000310540F0E881F9810284F385E02DCE01D6
:1017F0000995EBCFDF91CF9108954F925F926F9251
:101800007F92BF92CF92DF92EF92FF920F931F933E
:10181000CF93DF93EC01B62ED5DFE82F87FD65C0AF
:10182000C12CD12C80E8E82E8FE3F82E412C512CCE
:10183000320110E000E0EB1571F1ED3249F1EE32CA
:1018400049F180ED8E0F8A3030F5AAE0B0E0A301B7
:10185000920126D54E2EEE0F550866087708AB018B
:10186000BC01440D551D661D771D2A013B0180E317
:10187000481A510861087108112369F02DEC3CECFD
:101880004CEC5DE3C701B6016DD46B017C0102C075
:1018900001E001C011E0E881F9810284F385E02DC7
:1018A000CE010995CE0152DFE82F80ED8E0F8A30F0
:1018B00008F4C1CFEE3209F4BECFEB1102C0EB2D1C
:1018C000BACFC301B201002339F09095809570958D
:1018D00061957F4F8F4F9F4F112329F033D3A7017D
:1018E000960140D405C02ED303C060E070E0CB0168
:1018F000DF91CF911F910F91FF90EF90DF90CF90EC
:10190000BF907F906F905F904F90089561E075CF8A
:10191000DEDB2CD852DBFECFCF93DF931F92CDB707
:10192000DEB76983DC01ED91FC910280F381E02D4B
:1019300041E050E0BE016F5F7F4F09950F90DF914E
:10194000CF910895FC018FB7F894909152019111B5
:1019500002C090E010C093E09093E9009091F200F3
:10196000911109C02091E80022FFF3CF25FDF1CFAE
:101970002BE62093E8008FBF2085318537FD03C01B
:101980009F3F09F09F5F892F90E00895CF93DF93E9
:10199000EC018885998597FF09C0E881F981028467
:1019A000F385E02DCE0109959987888788859985EB
:1019B000DF91CF910895FC012085318537FD07C067
:1019C0004FEF5FEF51874087C901992708959FB76F
:1019D000F89480915201882369F083E08093E900B4
:1019E0002BE68091E80085FD09C082FF03C02093AB
:1019F000E800F7CF9FBF8FEF9FEF08958091F10030
:101A00002091E80025FD03C02BE62093E8009FBF4E
:101A100090E0089580915201882361F08FB7F89487
:101A200094E09093E9009091F2008FBF80E4891BCD
:101A300090E0089580E090E00895DF92EF92FF92A9
:101A40000F931F93CF93DF938C01EB018091520191
:101A5000882371F07FB7F89484E08093E900809147
:101A60004301882369F08091E80085FD07C07FBFAE
:101A700081E0F801828320E030E0D1C01092430180
:101A800020E030E064E080E4F82EA1EFB0E09AE3DB
:101A9000E92EE3E0DE2E4115510509F4BFC0809127
:101AA000E400815F9091E80095FD16C07FBF9091A2
:101AB000E400981304C081E08093430105C0909135
:101AC0005201911104C081E0F8018283A8C07FB760
:101AD000F8946093E900E6CF8091F2009F2D981B67
:101AE000E92FF0E04E175F0708F4942FE92FF0E09C
:101AF0004E1B5F0B2E0F3F1FE0E4E91BE03428F480
:101B0000EE0FFF27EA57F24F099480C099919C93FA
:101B100099919C9399919C9399919C9399919C9361
:101B200099919C9399919C9399919C9399919C9351
:101B300099919C9399919C9399919C9399919C9341
:101B400099919C9399919C9399919C9399919C9331
:101B500099919C9399919C9399919C9399919C9321
:101B600099919C9399919C9399919C9399919C9311
:101B700099919C9399919C9399919C9399919C9301
:101B800099919C9399919C9399919C9399919C93F1
:101B900099919C9399919C9399919C9399919C93E1
:101BA00099919C9399919C9399919C9399919C93D1
:101BB00099919C9399919C9399919C9399919C93C1
:101BC00099919C9399919C9399919C9399919C93B1
:101BD00099919C9399919C9399919C9399919C93A1
:101BE00099919C9399919C9399919C9399919C9391
:101BF00099919C9399919C9399919C9399919C9381
:101C000099919C9399919C9399919C938091E800D0
:101C100085FFE092E800D09245013DCF7FBFC9012A
:101C2000DF91CF911F910F91FF90EF90DF9008957A
:101C30002FEF3FEFFC01318720871DDB0FB6F894B3
:101C400080913B0190913C01A0913D01B0913E01FA
:101C50000FBE9C0180915201882329F068EC70E04E
:101C600080E090E0C9CA80915101882301F10FB64C
:101C7000F89480913B0190913C01A0913D01B0917D
:101C80003E010FBE40915101442389F00FB6F894F4
:101C900040913B0150913C0160913D0170913E01AA
:101CA0000FBE481B590B4B3F510560F311C00FB6D7
:101CB000F89480913B0190913C01A0913D01B0913D
:101CC0003E010FBE821B930B853C994008F4C2CFA6
:101CD00008959FB7F89480915201882321F0809154
:101CE0004501811102C09FBF089584E08093E900FF
:101CF0008AE38093E80010924501F5CFEACF809106
:101D00005201882329F090915001937081E009F4E9
:101D100080E00895E6E4F1E08AE0DF011D928A9513
:101D2000E9F788EE93E0A0E0B0E083839483A58395
:101D3000B6838BE091E09183808308955058BB2750
:101D4000AA270ED0D1C1C2D130F0C7D120F031F4D2
:101D50009F3F11F41EF4B7C10EF4E095E7FB9FC15D
:101D6000E92FD3D180F3BA17620773078407950769
:101D700018F071F49EF5EBC10EF4E0950B2EBA2F1E
:101D8000A02D0B01B90190010C01CA01A001112481
:101D9000FF27591B99F0593F50F4503E68F11A162D
:101DA000F040A22F232F342F4427585FF3CF4695BE
:101DB00037952795A795F0405395C9F77EF41F16E0
:101DC000BA0B620B730B840BBAF09150A1F0FF0FAA
:101DD000BB1F661F771F881FC2F70EC0BA0F621F96
:101DE000731F841F48F4879577956795B795F79586
:101DF0009E3F08F0B3CF9395880F08F09927EE0F18
:101E000097958795089527D108F481E008950CD01F
:101E10006BC163D140F05AD130F021F45F3F19F02B
:101E20003EC1511195C14FC170D198F39923C9F3A7
:101E30005523B1F3951B550BBB27AA2762177307D0
:101E4000840738F09F5F5F4F220F331F441FAA1F84
:101E5000A9F333D00E2E3AF0E0E830D09150504044
:101E6000E695001CCAF729D0FE2F27D0660F771FF2
:101E7000881FBB1F261737074807AB07B0E809F0D4
:101E8000BB0B802DBF01FF2793585F4F2AF09E3F69
:101E9000510568F004C15CC15F3FECF3983EDCF390
:101EA000869577956795B795F7959F5FC9F7880FE2
:101EB000911D9695879597F90895E1E0660F771F34
:101EC000881FBB1F621773078407BA0720F0621BC5
:101ED000730B840BBA0BEE1F88F7E095089504D0BE
:101EE0006894B11135C1089518D188F09F5790F0CA
:101EF000B92F9927B751A0F0D1F0660F771F881F2F
:101F0000991F1AF0BA95C9F712C0B13081F01FD1EC
:101F1000B1E008951CC1672F782F8827B85F39F08A
:101F2000B93FCCF3869577956795B395D9F73EF48D
:101F300090958095709561957F4F8F4F9F4F089535
:101F4000E89409C097FB3EF4909580957095619553
:101F50007F4F8F4F9F4F9923A9F0F92F96E9BB2709
:101F60009395F695879577956795B795F111F8CF85
:101F7000FAF4BB0F11F460FF1BC06F5F7F4F8F4FF0
:101F80009F4F16C0882311F096E911C0772321F0E6
:101F90009EE8872F762F05C0662371F096E8862F7E
:101FA00070E060E02AF09A95660F771F881FDAF7D5
:101FB000880F9695879597F9089588D018F011F0B5
:101FC0008CD038F480C0C4C0E92F9FD0B0F3552323
:101FD000C9F3E7FB6217730784079507A8F199F324
:101FE000E92FFF2788232AF03197660F771F881F74
:101FF000DAF7952F5527442332F091505040220FA5
:10200000331F441FD2F7BB27E91BF50B621B730B71
:10201000840BB109C1F222F4620F731F841FB11D3A
:1020200031972AF0660F771F881FBB1FEFCF9150A3
:1020300050405AF041F0882332F0660F771F881F16
:1020400091505040C1F7939530C08695779567952C
:102050009F5FD9F7F8CF990F0008550FAA0BE0E85A
:10206000FEEF16161706E807F907C0F0121613065A
:10207000E407F50798F0621B730B840B950B39F49A
:102080000A2661F0232B242B252B21F408950A2600
:1020900009F4A140A6958FEF811D811D089597F940
:1020A0009F6780E870E060E008959F3F31F09150B5
:1020B00020F4879577956795B795880F911D96952C
:1020C000879597F908959FEF80EC089500240A946E
:1020D0001616170618060906089500240A94121603
:1020E0001306140605060895092E0394000C11F436
:1020F000882352F0BB0F40F4BF2B11F460FF04C0E3
:102100006F5F7F4F8F4F9F4F089557FD9058440F3B
:10211000551F59F05F3F71F04795880F97FB991F46
:1021200061F09F3F79F08795089512161306140603
:10213000551FF2CF4695F1DF08C016161706180690
:10214000991FF1CF86957105610508940895E8946B
:10215000BB2766277727CB0197F908957CDF08F422
:102160008FEF08950BD0C0CFB1DF28F0B6DF18F0A5
:10217000952309F094CFA7CF1124EACFC6DFA0F3AF
:10218000959FD1F3950F50E0551F629FF001729F0C
:10219000BB27F00DB11D639FAA27F00DB11DAA1F2B
:1021A000649F6627B00DA11D661F829F2227B00D78
:1021B000A11D621F739FB00DA11D621F839FA00D03
:1021C000611D221F749F3327A00D611D231F849F53
:1021D000600D211D822F762F6A2F11249F575040AA
:1021E0008AF0E1F088234AF0EE0FFF1FBB1F661F45
:1021F000771F881F91505040A9F79E3F510570F0FE
:102200004ECFA6CF5F3FECF3983EDCF386957795F3
:102210006795B795F795E7959F5FC1F7FE2B880FF8
:10222000911D9695879597F9089597FB072E16F4BB
:10223000009406D077FD08D03DD007FC05D03EF4D1
:10224000909581959F4F0895709561957F4F089562
:10225000A1E21A2EAA1BBB1BFD010DC0AA1FBB1FAA
:10226000EE1FFF1FA217B307E407F50720F0A21B1C
:10227000B30BE40BF50B661F771F881F991F1A9489
:1022800069F760957095809590959B01AC01BD01B3
:10229000CF010895EE0FFF1F0590F491E02D0994F2
:1022A0001DD0A59F900DB49F900DA49F800D911DF2
:1022B00011240895AA1BBB1B51E107C0AA1FBB1F15
:1022C000A617B70710F0A61BB70B881F991F5A95C2
:1022D000A9F780959095BC01CD010895A29FB0010A
:1022E000B39FC001A39F700D811D1124911DB29F4A
:1022F000700D811D1124911D0895EF920F931F936E
:10230000CF93DF93E80147FD02C034E001C034E120
:10231000E42F440FFF0BF7FF03C0F195E195F1099E
:10232000E32E022F2E2FAE0121D0CE01DF91CF91CF
:102330001F910F91EF9008959111089581568A5140
:1023400008F4805285580895FB01DC0102C0059015
:102350000D9241505040D8F70895FC01059000209F
:10236000E9F7809590958E0F9F1F08954F925F9289
:102370006F927F929F92AF92BF92CF92DF92EF9235
:10238000FF920F931F93CF93DF93CDB7DEB72997BB
:102390000FB6F894DEBF0FBECDBF6A01122FB02E6C
:1023A0002BE3201720F0FF24F394F00E02C0BCE3CF
:1023B000FB2E0F2D27E0AE014F5F5F4F64D1AC01C4
:1023C0008981982F9970913031F0E1FC06C0E0FED0
:1023D00006C090E205C09DE203C09BE201C090E010
:1023E000EE2DE07183FF3CC0911102C083E001C07B
:1023F00084E0811718F4212F281B01C020E0E1118F
:102400000BC0F601822F30E2882319F031938150FE
:10241000FBCFC20ED11C20E0992329F0D6019C935A
:10242000F60131966F01C6010396E2FE0AC03EE452
:10243000D6013C9341E411964C93119712963C932C
:1024400006C03EE6F601308341E641833283FC015B
:10245000322F40E2332309F442C041933150FACF86
:1024600082FF44C0911102C083E001C084E0811763
:1024700018F4212F281B01C020E0E1110BC0F60148
:10248000822F30E2882319F031938150FBCFC20EA6
:10249000D11C20E0992329F0D6019C93F6013196B6
:1024A0006F01C6010396E2FE0BC039E4D6013C93EE
:1024B0003EE411963C93119736E412963C9307C084
:1024C00039E6F60130833EE6318336E63283FC019D
:1024D000322F40E2332319F041933150FBCFFC01FE
:1024E000E20FF11D10828EEF9FEFB7C0F1E0911166
:1024F00001C0F0E06F2F70E01416150624F49A0165
:102500002F5F3F4F02C021E030E0260F371FBB2076
:1025100029F06B2D70E06F5F7F4F02C060E070E0CC
:10252000260F371F612F70E0261737071CF4121B88
:10253000212F01C020E03E2D387159F4D601322FF1
:1025400060E2332319F06D933150FBCFC20ED11CE2
:1025500020E0FF2331F0D6019C93B6016F5F7F4FDF
:102560006B01E1110BC0F601922F30E3992319F0B2
:1025700031939150FBCFC20ED11C20E09F2D940FC0
:102580003A81782F7071A72E84FF03C0313309F48C
:102590009150191624F4993018F098E001C091E098
:1025A000E42F852F57FF02C0E0E080E06E2F782FE8
:1025B000E0E0F0E0AEE29A2E3A01691A71082A01D1
:1025C000461A570A0B2D10E01195019511096F3F1E
:1025D0008FEF780729F4D6019C92C60101966C0111
:1025E0004617570784F0661677066CF47F01E40CF3
:1025F000F51CA1E0B0E0AC0FBD1FEA0EFB1ED70139
:102600001196BC9002C090E3B92E615071093196C9
:10261000C60101967C016017710724F0D601BC92B7
:102620006C01D5CF6417750741F4363320F4353388
:1026300021F4A11002C081E3B82EF601B082F701A7
:10264000822F90E2882319F091938150FBCFF701FC
:10265000E20FF11D108280E090E029960FB6F89409
:10266000DEBF0FBECDBFDF91CF911F910F91FF90C5
:10267000EF90DF90CF90BF90AF909F907F906F9042
:102680005F904F900895283008F027E03327DA0153
:10269000990F311D87FD916000966105710539F430
:1026A00032602E5F3D9330E32A95E1F708959F3F16
:1026B00030F080387105610509F03C5F3C5F3D9367
:1026C000913008F08068911DDF93CF931F930F9393
:1026D000FF92EF92192F987F9695E92F96959695F0
:1026E000E90FFF27EA5FFE4F99273327EE24FF24E7
:1026F000A701E70105900894079428F4360FE71E18
:10270000F81E491F511D660F771F881F991F0694D9
:10271000A1F70590079428F4E70EF81E491F561FED
:10272000C11D770F881F991F661F0694A1F705909A
:10273000079428F4F80E491F561FC71FD11D880F94
:10274000991F661F771F0694A1F70590079420F440
:10275000490F561FC71FD81F990F661F771F881F65
:102760000694A9F784911095177041F0D695C795F6
:1027700057954795F794E7941A95C1F7ECEAF0E07E
:1027800068941590159135916591959105907FE22A
:102790007395E118F10A430B560BC90BD009C0F72A
:1027A000E10CF11E431F561FC91FD01D7EF470336C
:1027B00011F48A95E6CFE894015030F0080F0AF43E
:1027C0000027021708F4202F2395022F7A3328F0D0
:1027D00079E37D932A95E9F710C07D932A9589F6D0
:1027E000069497956795379517951794E118F10A10
:1027F000430B560BC90BD00998F023957E91739526
:102800007A3308F070E37C932013B8F77E917061FF
:102810007D9330F0839571E37D9370E32A95E1F722
:102820001124EF90FF900F911F91CF91DF91992785
:0A28300087FD90950895F894FFCFFE
:10283A0000E10000000008000000008C0C1D0D0AD9
:0A284A000D7E0EA20CDB0CC60C0084
:00000001FF
